:100000000A128A11F22F00308A000408840A82073B
:100010000034FF3420342034203420342034203481
:100020002034203420342034203420342034203430
:100030002034203400347734693474346834203404
:100040005034493443343134363446343834373418
:1000500037344134003443346834653463346B34AA
:100060002034733475346D34203465347234723412
:100070006F347234003463346934723463347534E9
:1000800069347434203444346934673465347334E7
:10009000743400344E346F34203452346534733445
:1000A00070346F346E34733465342E340034443419
:1000B00048345434313431342034533465346E345C
:1000C00073346F3472340034483475346D346934A9
:1000D00064346934743479343A3420340034573415
:1000E00065346C3463346F346D3465342034743467
:1000F0006F3400344534723472346F3472342134C6
:10010000213421340034543465346D3470343A343D
:100110002034003443342034203420340034253457
:06012000203420340034FD
:1007700064008001840A0406031900340406B92BBE
:10078000F800831203134C14061478080A128A1115
:10079000AA2408008316031386010A128A110D2663
:1007A0000A128A110A128A119B250800F201F3012C
:1007B000F201F30171087302031DE02B700872024D
:1007C000031808000130F2070318F30A0030F3079A
:1007D000DA2BF400831203130610861074088600C7
:1007E00006152C30F0000130F1000A128A11D623D0
:1007F000831203130611080080300A128A11AA24FA
:100800000A128A1102300A128A1148240A128A1125
:10081000C0300A128A11AA240A128A1102300A125E
:100820008A114824080083160313881283120313C5
:1008300088127530F100E130F000F00B1D2CF10B47
:100840001D2C8312031388163130F000F00B262C78
:10085000292C831603138816080083120313B6018C
:100860004230F000F00B322C000083120313881A80
:1008700008008530F000F00B3B2C83120313881E18
:10088000432CB601B60A5330F000F00B452C08009B
:10089000FB00F901FA0179087B0784000A128A112A
:1008A00003200A128A11003A0319080079087B070D
:1008B00084000A128A1103200A128A110A128A116C
:1008C000C0230A128A110130F9070318FA0A00300E
:1008D000FA074B2CF301083073020318A82C83127B
:1008E0000313881E6F2C3130F000F00B752C782C20
:1008F00083120313881A8E2C0130F0007303FF3A21
:10090000073E013E852C0310F00DFF3E031D832C96
:100910007008FF3AF1007108F205A02C0130F000D8
:100920007303FF3A073E013E972C0310F00DFF3E84
:10093000031D952C7008F1007108F204881A9E2C92
:100940000130F0007008F30708307302031C6F2CAD
:1009500072080800F600831203134C1CB12C4C10D3
:10096000B22C061086107608F4007408F700F030F8
:10097000F4007408F7050F30F40074088605770852
:10098000F4007408860406152C30F0000130F100E4
:100990000A128A11D6230A128A118312031306112E
:1009A0007608F40003300310F40DFF3E031DD32C32
:1009B0000310740DF5007508F700F030F4007408AA
:1009C000F7050F30F400740886057708F400740802
:1009D000860406152C30F0000130F1000A128A114D
:1009E000D623831203130611080083120313C001D8
:1009F000FC1F012DFB09FC09FB0A0319FC0AC001BD
:100A0000C00AFA1F082DF909FA09F90A0319FA0AA6
:100A100079087A040319352DBF01BF0AFA1B1C2D72
:100A200001300310F90DFA0DFF3E031D112D0130A9
:100A3000FD007D08BF070E2D7A087C02031D222DC4
:100A400079087B02031C2A2D7908FB027A08031C13
:100A5000FC03FC0201300310FA0CF90CFF3E031DED
:100A60002B2D0130BF02031D1C2D400803193D2D05
:100A7000FB09FC09FB0A0319FC0A7C08FA007B0845
:100A8000F9000800F601F11F4C2DF009F109F00AF8
:100A90000319F10AF601F60AF31F572DF209F309BB
:100AA000F20A0319F30A0130F4007408F606F7019C
:100AB000F8017008710403198E2DF501F50AF11B78
:100AC0006D2D01300310F00DF10DFF3E031D622D61
:100AD0000130F4007408F5075F2D01300310F70DA5
:100AE000F80DFF3E031D6E2D71087302031D7A2D54
:100AF00070087202031C832D7008F2027108031C37
:100B0000F303F302771401300310F10CF00CFF3EF5
:100B1000031D842D0130F502031D6D2D7608031988
:100B2000962DF709F809F70A0319F80A7808F10071
:100B30007708F000080080300A128A11AA240A12ED
:100B40008A1167300A128A1148240A128A11C030A9
:100B50000A128A11AA240A128A1133300A128A113F
:100B600048240A128A111A3083120313C1005E301E
:100B7000C0008630BF00BF0BBB2DC00BBB2DC10B0F
:100B8000BB2D00001A3083120313C1005E30C00079
:100B90008630BF00BF0BCA2DC00BCA2DC10BCA2D9A
:100BA00000000A128A11FC230A128A1180300A12EC
:100BB0008A11AA240A128A114F300A128A11482473
:100BC0000A128A11C0300A128A11AA240A128A1142
:100BD00013300A128A1148240A128A111A30831219
:100BE0000313C1005E30C0008630BF00BF0BF62D7E
:100BF000C00BF62DC10BF62D00001A308312031323
:100C0000C1005E30C0008630BF00BF0B052EC00B98
:100C1000052EC10B052E000008002C30F00001301D
:100C2000F1000A128A11D6230A128A1130300A12F0
:100C30008A11E9230A128A112C30F0000130F100E8
:100C40000A128A11D6230A128A1130300A128A1126
:100C5000E9230A128A112C30F0000130F1000A1247
:100C60008A11D6230A128A1130300A128A11E92316
:100C70000A128A112C30F0000130F1000A128A1198
:100C8000D6230A128A1120300A128A11E9230A1285
:100C90008A112C30F0000130F1000A128A11D6239B
:100CA0000A128A110C300A128A11AA240A128A1115
:100CB0002C30F0000130F1000A128A11D6230A12FA
:100CC0008A1104300A128A11AA240A128A112C30BD
:100CD000F0000130F1000A128A11D6230A128A119B
:100CE00085300A128A11AA240A128A112C30F000C7
:100CF0000130F1000A128A11D6230A128A11063035
:100D00000A128A11AA240A128A112C30F00001302A
:100D1000F1000A128A11D6230A128A1101300A122E
:100D20008A11AA240A128A112C30F0000130F10035
:100D30000A128A11D62308000A128A11CA230A123B
:100D40008A11153083120313C4004B30C300D13015
:100D5000C200C20BA92EC30BA92EC40BA92E0000E2
:100D60000A128A1113240A128A110A128A112D24D6
:100D70000A128A11831203133603031DC52F0A12A8
:100D80008A116A240A128A1183120313C2004208CC
:100D9000B9000A128A116A240A128A1183120313F3
:100DA000C2004208BA000A128A116A240A128A1181
:100DB00083120313C2004208BC000A128A116A247B
:100DC0000A128A1183120313C2004208BD000A12DC
:100DD0008A116A240A128A1183120313C20042087C
:100DE000BB0039083A07C200C301C30D3C084207E3
:100DF000C4000030031801304307C5003D08440714
:100E0000C6000030031801304507C700FF30460513
:100E1000C80000304705C9003B08CA00CB0149089B
:100E20004B06031D152F48084A06031DC32F3C0817
:100E3000C2004208B7003908C2004208B80080303A
:100E40000A128A11AA240A128A117B300A128A1104
:100E500048240A128A110A30F9000030FA000A30D8
:100E6000F0000030F100831203133708C200C30101
:100E70004208F2004308F3000A128A1142250A12BE
:100E80008A117108FC007008FB000A128A11F5240F
:100E90000A128A117908303E0A128A11C0230A12F6
:100EA0008A110A30F9000030FA0083120313370860
:100EB000C200C3014208FB004308FC000A128A1169
:100EC000F5240A128A117908303E0A128A11C023C9
:100ED0000A128A11DF300A128A11C0230A128A11FB
:100EE00082300A128A1148240A128A11C0300A126A
:100EF0008A11AA240A128A115C300A128A11482423
:100F00000A128A110A30F9000030FA000A30F000A3
:100F10000030F100831203133808C200C3014208F5
:100F2000F2004308F3000A128A1142250A128A11BC
:100F30007108FC007008FB000A128A11F5240A12DD
:100F40008A117908303E0A128A11C0230A128A11C6
:100F50000A30F9000030FA00831203133808C20087
:100F6000C3014208FB004308FC000A128A11F52461
:100F70000A128A117908303E0A128A11C0230A1215
:100F80008A118730DD2F2330DD2F0A128A11FC23CE
:100F90000A128A1180300A128A11AA240A128A11AE
:100FA00072300A128A1148240A128A11C0300A12B9
:100FB0008A11AA240A128A1142300A128A1148247C
:100FC0000A128A111A3083120313C4005E30C30060
:100FD0008630C200C20BEA2FC30BEA2FC40BEA2FE4
:100FE0000000A12E83120313CC0183132030840050
:100FF0003F300A128A11B82383010A128A119C2EEB
:02400E00723FFF
:00000001FF
