:020000040000FA
:100000000A128A11FC2F00308A000408840A820731
:10001000003456344F344C3454344134473445342E
:100020002034523445344134443449344E34473416
:100030003A34003442347534743474346F346E346A
:100040002034693473342034503475347334683454
:1000500065346434003445346D346234653464345A
:1000600064346534643420345334793473347434F0
:1000700065346D34733400344D3469346E3469340E
:10008000503472346F346A346534633474342D34CC
:10009000313400344134673472346934703470342C
:1000A00069346E346134203457342E344D34003486
:1000B00050346C34653461347334653420345734CF
:1000C000613469347434213400345034723465340A
:1000D000733465346E34743465346434203442349B
:1000E0007934003449345334523420344F344E344C
:1000F00000342E340034563400344130831203135C
:100100009F00C030831603139F000800F4000130E5
:10011000F2007208831203139F057408F200023084
:100120000310F20DFF3E031D90280310720DF30023
:1001300073089F040330F3009730F200F20B9E28FF
:10014000F30B9E28A328831203131F151F19A6283B
:100150001E08F100831603131E08F0000800F700C4
:100160007703031DD42874087F3EF5007508FA0054
:100170007A08F50004300310F50CFF3E031DBB2880
:100180007508F6007608F8007A080F39F50075084A
:10019000F90078080A128A156A270A128A11790862
:1001A0000A128A156A27080002307706031D080024
:1001B0007408BF3EF5007508FA007A08F5000430AF
:1001C0000310F50CFF3E031DE0287508F6007608C5
:1001D000F8007A080F39F5007508F90078080A1256
:1001E0008A156A270A128A1179080A128A156A275B
:1001F000080083120313A101FC1F0529FB09FC0958
:10020000FB0A0319FC0AA101A10AFA1F0C29F9092A
:10021000FA09F90A0319FA0A79087A04031939293B
:10022000A001A00AFA1B202901300310F90DFA0DD4
:10023000FF3E031D15290130FD007D08A00712298E
:100240007A087C02031D262979087B02031C2E29CB
:100250007908FB027A08031CFC03FC02013003103E
:10026000FA0CF90CFF3E031D2F290130A002031DDB
:100270002029210803194129FB09FC09FB0A03195C
:10028000FC0A7C08FA007B08F9000800F601F11F5F
:100290005029F009F109F00A0319F10AF601F60AEA
:1002A000F31F5B29F209F309F20A0319F30A01307B
:1002B000F4007408F606F701F801700871040319D8
:1002C0009229F501F50AF11B712901300310F00D97
:1002D000F10DFF3E031D66290130F4007408F50797
:1002E000632901300310F70DF80DFF3E031D72293D
:1002F00071087302031D7E2970087202031C87298E
:100300007008F2027108031CF303F3027714013042
:100310000310F10CF00CFF3E031D88290130F5029B
:10032000031D7129760803199A29F709F809F70AB4
:100330000319F80A7808F1007708F0000800003087
:100340000A128A1550270A128A111A30F500F8305D
:10035000F400F40BA929F50BA929000003300A12B7
:100360008A156A270A128A110730F5007D30F400D9
:10037000F40BB829F50BB82903300A128A156A273D
:100380000A128A110F30F5004730F400F40BC62929
:10039000F50BC629CB2903300A128A156A270A12DF
:1003A0008A1102300A128A156A270A128A1102304B
:1003B0000A128A156A270A128A1108300A128A1547
:1003C0006A270A128A1100300A128A156A270A124D
:1003D0008A110C300A128A156A270A128A11003013
:1003E0000A128A156A270A128A1106300A128A1519
:1003F0006A2708000310831203133C0D3D0DBE0055
:100400003E08C4004408031D0E2A0030BD00003021
:10041000BC000030BB000030BA0008003A08BE0043
:100420003B08BF003C08C0003D08C1001F3003105E
:10043000C10CC00CBF0CBE0CFF3E031D172A3E08AA
:10044000C2004208C300BC17FF30BA05FF30BB052D
:10045000FF30BC050030BD059630C402C41F452ADC
:100460004408803A973E031C052A01300310BD0C56
:10047000BC0CBB0CBA0CFF3E031D362A0130BE007B
:100480003E08C4070319582A352A203044020318AD
:10049000052A44080319582A0130BE000310BA0D7A
:1004A000BB0DBC0DBD0DBE0B4E2A0130C402492A46
:1004B000430803190800BA09BB09BC09BD09BA0AF7
:1004C0000319BB0A0319BC0A0319BD0A08008B1CD7
:1004D00008008230FC00DD30FB00FB0B6D2AFC0BBA
:1004E0006D2A722A8B108316031388010A128A154B
:1004F00045270A128A11F401F40A01300A128A11FE
:10050000AF200A128A1112300A128A1584270A12A1
:100510008A110230FB007B08F40002300A128A11B3
:10052000AF200A128A1150300A128A1584270A1243
:100530008A110B30FD002630FC005D30FB00FB0B08
:100540009F2AFC0B9F2AFD0B9F2AA62A0A128A15B6
:1005500045270A128A110330FB007B08F4000130A2
:100560000A128A11AF200A128A116A300A128A15F9
:1005700084270A128A110B30FD002630FC005D3002
:10058000FB00FB0BC12AFC0BC12AFD0BC12AC82AA8
:1005900083120313A001A101831203130514023077
:1005A000FD000430FC00BA30FB00FB0BD52AFC0B2D
:1005B000D52AFD0BD52A0000831203130510023043
:1005C000FD000430FC00BA30FB00FB0BE52AFC0BFD
:1005D000E52AFD0BE52A0000013083120313A00772
:1005E0000318A10A0030A1072108803AFF008030DB
:1005F0007F02031DFD2A0530200203180800CC2AC3
:10060000F8007808031DF31F152B7009FA00710913
:10061000FB007209FC007309FD00FA0A0319FB0ACA
:100620000319FC0A0319FD0A1D2B7308FD0072084B
:10063000FC007108FB007008FA0073087204710472
:100640007004031D2C2B0030F3000030F20000304A
:10065000F1000030F00008009630F4007408F90052
:10066000FE307D0503195D2B0130F4007408F90795
:1006700001300310FD0CFC0CFB0CFA0CFF3E031DBB
:10068000392B302B0130F4007408F9070130FA07D8
:10069000003003180130FB07003003180130FC075D
:1006A000003003180130FD0701300310FD0CFC0C75
:1006B000FB0CFA0CFF3E031D552BFF307D05031983
:1006C000712B422B02307902031C732B0130F9028B
:1006D0000130F4000310FA0DFB0DFC0DFD0DF40BC1
:1006E0006A2BFC1F622B79187D2BFF30FA05FF3037
:1006F000FB057F30FC05FF30FD050310F90C790880
:10070000F400F501F601F70118300310F40DF50DB2
:10071000F60DF70DFF3E031D852B7408FA047508CE
:10072000FB047608FC047708FD047808031DF31F1A
:100730009A2BFD177D08F3007C08F2007B08F1007E
:100740007A08F000080083120313D001D101831648
:100750000313850183120313850183160313880194
:1007600087018312031388018B170B170B160A12CC
:100770008A117D200A128A1104300A128A118620F9
:100780000A128A11710883120313D3007008D20071
:100790005208F0005308F1000030F11BFF30F20066
:1007A000F30001300A128A1100230A128A11730819
:1007B00083120313A7007208A6007108A500700831
:1007C000A4003E30A300F930A200FF30A100F830B1
:1007D000A0000A128A11E7240A128A118312031355
:1007E0002308BD002208BC002108BB002008BA0075
:1007F0000A128A11FA210A128A11831203133B0882
:10080000D5003A08D400D001D1010130D007031837
:10081000D10A0030D1070A30F9000030FA00E83080
:10082000F0000330F1005508F3005408F2000A12FA
:100830008A1146210A128A117108FC007008FB0017
:100840000A128A11F9200A128A117A0883120313F4
:10085000C9007908C8000A30F9000030FA00643095
:10086000F0000030F1005508F3005408F2000A12BD
:100870008A1146210A128A117108FC007008FB00D7
:100880000A128A11F9200A128A117A0883120313B4
:10089000CB007908CA000A30F9000030FA000A30AB
:1008A000F0000030F1005508F3005408F2000A127D
:1008B0008A1146210A128A117108FC007008FB0097
:1008C0000A128A11F9200A128A117A088312031374
:1008D000CD007908CC000A30F9000030FA00550844
:1008E000FC005408FB000A128A11F9200A128A112E
:1008F0007A0883120313CF007908CE000A128A11F6
:100900009F210A128A110A128A1545270A128A1192
:10091000F401F40A01300A128A11AF200A128A1176
:1009200001300A128A1584270A128A1105308312AF
:100930000313C5004508F40002300A128A11AF20E3
:100940000A128A11831203134808303E0A128A15CC
:10095000C9270A128A11831203134A08303E0A1269
:100960008A15C9270A128A1171300A128A1584273A
:100970000A128A11831203134C08303E0A128A1598
:10098000C9270A128A11831203134E08303E0A1235
:100990008A15C9270A128A1173300A128A15842708
:1009A0000A128A11023083120313C7000430C600F2
:1009B000B930C500C50BDA2CC60BDA2CC70BDA2C04
:1009C000E12C0A128A1167220A128A11B72B8312AC
:1009D000031323088039A8002808AD002308A800C5
:1009E0002807A9002908B300A21B331433080319F0
:1009F000062D330A031D042D0030A3000030A20091
:100A00000030A1000030A000A2170E2D0030A3007E
:100A10000030A2000030A1000030A000270880397B
:100A2000A8002808AD062708A8002807A90029085B
:100A3000B200A61B3214320803192B2D320A031DF3
:100A4000292D0030A7000030A6000030A50000309E
:100A5000A400A617332D0030A7000030A6000030F8
:100A6000A5000030A4003208031D3308031D412DEA
:100A70000030A3000030A2000030A1000030A00030
:100A800008002008A8002808F00026080A128A1585
:100A9000A6270A128A11710883120313B90070087D
:100AA000B8003808A800A901AA01AB012B08B100C1
:100AB0002A08B0002908AF002808AE003908A800AD
:100AC000A901AA01AB012B08B7002A08B600290822
:100AD000B5002808B4002108A8002808F00025085F
:100AE0000A128A15A6270A128A11710883120313A3
:100AF000B9007008B8003808A800A901AA01AB0124
:100B00002808AE07290803110318013E031DAF078B
:100B10002A0803110318013E031DB0072B08031117
:100B20000318013E031DB1073908A800A901AA0155
:100B3000AB012808B407290803110318013E031D5F
:100B4000B5072A0803110318013E031DB6072B0839
:100B500003110318013E031DB7072208A800280847
:100B6000F00024080A128A15A6270A128A117108B1
:100B700083120313B9007008B8003808A800A9014F
:100B8000AA01AB012808AE07290803110318013E8A
:100B9000031DAF072A0803110318013E031DB00708
:100BA0002B0803110318013E031DB1073908A800E3
:100BB000A901AA01AB012808B407290803110318E9
:100BC000013E031DB5072A0803110318013E031D4A
:100BD000B6072B0803110318013E031DB7070830A1
:100BE000A8000310AE0DAF0DB00DB10DA80BF12D87
:100BF0002108A8002808F00024080A128A15A62750
:100C00000A128A11710883120313B9007008B80020
:100C10003808A8003908A900AA01AB012808AE07C6
:100C2000290803110318013E031DAF072A08031109
:100C30000318013E031DB0072B0803110318013EE2
:100C4000031DB1072008A8002808F00025080A1293
:100C50008A15A6270A128A11710883120313B90094
:100C60007008B8003808A8003908A900AA01AB012B
:100C70002808AE07290803110318013E031DAF071A
:100C80002A0803110318013E031DB0072B080311A6
:100C90000318013E031DB1070830A8000310AE0D74
:100CA000AF0DB00DB10DA80B4E2E2008A8002808DE
:100CB000F00024080A128A15A6270A128A11710860
:100CC00083120313B9007008B8003808A800390867
:100CD000A900AA01AB012808AE07290803110318CF
:100CE000013E031DAF072A0803110318013E031D2F
:100CF000B0072B0803110318013E031DB10721089B
:100D0000A8002808F00026080A128A15A6270A1249
:100D10008A11710883120313B9007008B8003808EB
:100D2000A8003908A900AA01AB012808B4072908BE
:100D300003110318013E031DB5072A080311031808
:100D4000013E031DB6072B0803110318013E031DC6
:100D5000B7072208A8002808F00025080A128A15FB
:100D6000A6270A128A11710883120313B9007008AA
:100D7000B8003808A8003908A900AA01AB01280862
:100D8000B407290803110318013E031DB5072A08FB
:100D900003110318013E031DB6072B0803110318A6
:100DA000013E031DB7072208A8002808F000260806
:100DB0000A128A15A6270A128A11710883120313D0
:100DC000B9007008B8003808A8003908A900AA01BD
:100DD000AB0108300310A80DA90DAA0DAB0DFF3E05
:100DE000031DEA2E2808B407290803110318013E41
:100DF000031DB5072A0803110318013E031DB6079A
:100E00002B0803110318013E031DB7072E08A80085
:100E10002F08A9003008AA003108AB0018300310D1
:100E2000AB0CAA0CA90CA80CFF3E031D0F2F280821
:100E3000B407290803110318013E031DB5072A084A
:100E400003110318013E031DB6072B0803110318F5
:100E5000013E031DB7070830A8000310AE0DAF0D0B
:100E6000B00DB10DA80B2D2F33083207A800A90132
:100E7000A90D2808823EB80029080318013EFF3E4C
:100E8000B900B61B5E2F0130A8000310B40DB50DDC
:100E9000B60DB70DA80B452FB11B34140130A800B7
:100EA0000310AE0DAF0DB00DB10DA80B502FFF30DC
:100EB000B8070318B90AFF30B907412FB201B11FB3
:100EC000772FFF302E05A800FF302F05A900FF3037
:100ED0003005AA007F303105AB002B082A04290415
:100EE000280403193418752F772FB201B20A32087B
:100EF0000319A92F0130B407003003180130B507DA
:100F0000003003180130B607003003180130B7076E
:100F1000371CA92F3408A8003508A9003608AA00F4
:100F20003708AB000130AC002B0DAB0CAA0CA90CA0
:100F3000A80CAC0B942F2B08B7002A08B600290880
:100F4000B5002808B4000130B8070318B90A00300A
:100F5000B9073908803AFF0080307F02031DB22FA5
:100F6000FF303802031CBF2F7F3083120313B700FA
:100F70008030B6000030B5000030B400EF2F83128F
:100F800003133908803AFF0080307F02031DCA2F07
:100F9000013038020318D82F003083120313B70032
:100FA0000030B6000030B5000030B400AD01EF2FC6
:100FB000831203133808A8002808B300FF30B405D3
:100FC000FF30B5057F30B6050030B7053318B617CA
:100FD0003308A8000310280CA9002908B7002D0821
:100FE000A8002808B7043708A3003608A20035086F
:100FF000A1003408A000080083010A128A11A32B63
:101E8A0000300A128A156A270A128A1501300A12C4
:101E9A008A156A270800F000701C572F8312031353
:101EAA0008165A2F831203130812F01C5E2F881685
:101EBA005F2F8812701D632F0817642F0813F01DF7
:101ECA00682F8817080088130800F3008312031389
:101EDA00881073080A128A1550270A128A15831263
:101EEA00031388150630F2003030F100F10B7B2F16
:101EFA00F20B7B2F00008312031388110800F700EE
:101F0A00F501F6017508770784000A128A11032081
:101F1A000A128A15003A031908007508770784001F
:101F2A000A128A1103200A128A150A128A15C92767
:101F3A000A128A150130F5070318F60A0030F60767
:101F4A00872FF800F401F5017008F200F301720816
:101F5A00F6007308F700781CB82F7608F407031800
:101F6A00F50A7708F50701300310F60DF70DFF3E65
:101F7A00031DB92F0310F80C7808031DB02F75083C
:101F8A00F1007408F0000800F40074080F39F10039
:101F9A007108F2007408F039F1007108F300831235
:101FAA00031388147308F10004300310F10CFF3E88
:101FBA00031DDA2F71080A128A1550270A128A1588
:101FCA008312031388150D30F100F10BEA2F8312E7
:101FDA000313881172080A128A1550270A128A15E1
:101FEA008312031388150D30F100F10BFA2F8312B7
:061FFA000313881108002A
:02400E007A3FF7
:00000001FF
